:100000000C942A000C9447000C9447000C94470071
:100010000C9447000C9447000C9447000C94470044
:100020000C9447000C9447000C9447000C94470034
:100030000C9447000C9447000C9447000C94470024
:100040000C9447000C9447000C9447000C94470014
:100050000C94470011241FBECFE5D8E0DEBFCDBF12
:1000600010E0A0E6B0E0EAE2F8E002C005900D92F0
:10007000A839B107D9F720E0A8E9B0E001C01D9286
:10008000AA3CB207E1F70E9449000C9413040C94B7
:100090000000CF93DF93CDB7DEB764970FB6F89427
:1000A000DEBF0FBECDBFFE01319684E1DF011D92A0
:1000B0008A95E9F760E875E280E090E00E94AD0083
:1000C00080E690E00E94E300812C912C54010F2ED9
:1000D000FDE6EF2EF0E0FF2EF02D8E010F5F1F4F9B
:1000E0000F2EF4E17F2EF02DBFEF8B1A9B0AAB0A87
:1000F000BB0ABF92AF929F928F92FF92EF921F9393
:100100000F930E943E01C8010E94E300F801272DD1
:1001100011922A95E9F78FEF99E6A8E18150904076
:10012000A040E1F700C000008DE790E00E94E300EE
:1001300080E00E94F2006C018FE890E00E94E300F2
:10014000C6010E94E3008AE690E00E94E3000FB639
:10015000F894DEBF0FBECDBFC7CFDC01CB01880F47
:10016000991FAA1FBB1F880F991FAA1FBB1F9C01A5
:10017000AD01220F331F441F551F220F331F441F91
:10018000551F60E072E18AE790E00E941C01822F17
:10019000815089B9DA01C9010197A109B109892FF3
:1001A0009A2FAB2FBB2780BD8AB188618AB980B5F1
:1001B000866880BD08955F9BFECF8CB108955D9BDE
:1001C000FECF8CB90895CF93DF93EC01888188230B
:1001D00031F021960E94DF0089918111FBCFDF91E0
:1001E000CF9108951F93CF93DF93182F0E94DB00C8
:1001F000C82F113011F40E94DF00CD3089F0D0E01B
:10020000ED2FF0E0E856FF4FC0830E94DB00C82FBF
:10021000113011F40E94DF00DF5FCD3089F701C09B
:10022000D0E0ED2FF0E0E856FF4F108288E990E033
:10023000DF91CF911F910895A1E21A2EAA1BBB1B3B
:10024000FD010DC0AA1FBB1FEE1FFF1FA217B307A2
:10025000E407F50720F0A21BB30BE40BF50B661FB8
:10026000771F881F991F1A9469F76095709580957C
:1002700090959B01AC01BD01CF010895AEE0B0E0C7
:10028000E4E4F1E00C94EA030D891E8986E08C8396
:100290001A8309838FEF9FE79E838D83CE01499652
:1002A000AC016F89788DCE0101960E946001EF81CB
:1002B000F885E00FF11F10822E96E4E00C940604FE
:1002C000ACE0B0E0E6E6F1E00C94DC037C016B010D
:1002D0008A01FC0117821682838181FFC6C18824AE
:1002E0008394912C8C0E9D1EF7019381F60193FD52
:1002F000859193FF81916F01882309F4B2C1853202
:1003000039F493FD859193FF81916F01853229F432
:10031000B70190E00E945203E7CF512C312C20E02E
:100320002032A8F48B3261F028F4803251F083320D
:1003300071F40BC08D3239F0803349F4216028C04C
:100340002260246025C0286023C0206121C027FDD1
:1003500027C0382F30533A3078F426FF06C0FAE031
:100360005F9E300D1124532E13C08AE0389E300D4D
:100370001124332E20620CC08E3221F426FD71C16F
:10038000206406C08C3611F4206802C0883641F41F
:10039000F60193FD859193FF81916F018111C0CF8B
:1003A000982F9554933018F09052933028F40C5FA6
:1003B0001F4FFFE3F9830DC0833631F0833771F0AF
:1003C000833509F05EC023C0F801808189830E5F08
:1003D0001F4F44244394512C540115C03801F2E0BE
:1003E0006F0E711CF801A080B18026FF03C0652D3F
:1003F00070E002C06FEF7FEFC5012C870E944703BA
:100400002C0183012C856FE7262E222218C038018B
:10041000F2E06F0E711CF801A080B18026FF03C0CE
:10042000652D70E002C06FEF7FEFC5012C870E9441
:100430003C032C012C8550E8252E222A830123FC25
:100440001CC006C0B70180E290E00E9452033A94BB
:10045000832D90E048165906A8F30FC0F50127FC3C
:10046000859127FE81915F01B70190E00E945203C0
:1004700031103A94F1E04F1A51084114510471F7C8
:10048000EDC0843611F0893641F5F80127FF07C029
:1004900060817181828193810C5F1F4F08C06081F0
:1004A0007181882777FD8095982F0E5F1F4F4FE64B
:1004B000B42EB22297FF09C09095809570956195F2
:1004C0007F4F8F4F9F4FF0E8BF2A2AE030E0A40112
:1004D0000E947E03A82EA81843C0853731F43FEE52
:1004E000B32EB2222AE030E024C099EFB92EB22216
:1004F0008F36B9F020F4883509F0B3C00DC08037CD
:1005000021F0883709F0ADC002C020E1B22AB4FE64
:100510000BC084E0B82A08C024FF09C0E6E0BE2A68
:1005200006C028E030E005C020E130E002C020E154
:1005300032E0F801B7FE07C060817181828193814A
:100540000C5F1F4F06C06081718180E090E00E5FFC
:100550001F4FA4010E947E03A82EA818FFE7BF2208
:10056000B6FE0BC02B2D2E7FA51450F4B4FE0AC08E
:10057000B2FC08C02B2D2E7E05C07A2C2B2D03C07B
:100580007A2C01C0752C24FF0DC0FE01EA0DF11D6F
:100590008081803311F4297E09C022FF06C0739444
:1005A000739404C0822F867809F0739423FD14C0DD
:1005B00020FF0FC05A2C731460F4530C5718732C7F
:1005C00008C0B70180E290E02C870E945203739428
:1005D0002C857314B0F304C0731410F4371801C0E1
:1005E000312C24FF12C0B70180E390E02C870E94D9
:1005F00052032C8522FF1EC021FF03C088E590E036
:1006000002C088E790E0B7010CC0822F867891F095
:1006100021FD02C080E201C08BE227FD8DE2B7011F
:1006200090E00E94520306C0B70180E390E00E9470
:1006300052035A94A514C0F3AA94F401EA0DF11DD3
:10064000B701808190E00E945203A110F5CF06C04F
:10065000B70180E290E00E9452033A943110F8CF43
:1006600043CEF7012681378102C02FEF3FEFC9014A
:100670002C96E2E10C94F803FC0105906150704067
:100680000110D8F7809590958E0F9F1F0895FC015B
:100690006150704001900110D8F7809590958E0FB1
:1006A0009F1F08950F931F93CF93DF938C01EB014E
:1006B0008B8181FD03C00FEF1FEF1AC082FF0DC0B9
:1006C0002E813F818C819D812817390764F4E88150
:1006D000F9810193F983E88306C0E885F985802FC5
:1006E0000995892B41F78E819F8101969F838E8387
:1006F000C801DF91CF911F910F910895FA01AA27A8
:10070000283051F1203181F1E8946F936E7F6E5F54
:100710007F4F8F4F9F4FAF4FB1E03ED0B4E03CD002
:10072000670F781F891F9A1FA11D680F791F8A1FE5
:10073000911DA11D6A0F711D811D911DA11D20D04C
:1007400009F468943F912AE0269F11243019305D06
:100750003193DEF6CF010895462F4770405D4193F7
:10076000B3E00FD0C9F7F6CF462F4F70405D4A3344
:1007700018F0495D31FD4052419302D0A9F7EACF0C
:10078000B4E0A6959795879577956795BA95C9F73B
:1007900000976105710508959B01AC010A2E06942E
:1007A0005795479537952795BA95C9F7620F731FE7
:1007B000841F951FA01D08952F923F924F925F9224
:1007C0006F927F928F929F92AF92BF92CF92DF9261
:1007D000EF92FF920F931F93CF93DF93CDB7DEB7C6
:1007E000CA1BDB0B0FB6F894DEBF0FBECDBF09945A
:1007F0002A88398848885F846E847D848C849B84B1
:10080000AA84B984C884DF80EE80FD800C811B81BE
:10081000AA81B981CE0FD11D0FB6F894DEBF0FBEED
:0A082000CDBFED010895F894FFCF5D
:10082A00554152542044454D4F200D0A00436F75DF
:10083A006E746572203D20256C640D0A00456E7445
:10084A006572206120737472696E673A0D0A0073CB
:08085A007472696E673A200018
:00000001FF
